:020000040000FA
:1000000000750020A5030000AD030000E5620000BC
:10001000B1030000B3030000B503000000000000BE
:10002000000000000000000000000000B703000016
:10003000B903000000000000BB030000BD03000086
:10004000BF030000C1030000C3030000C50300009C
:10005000C7030000C9030000CB030000CD0300006C
:10006000CF030000D1030000D3030000D50300003C
:10007000D7030000D9030000DB030000DD0300000C
:10008000DF030000E1030000E3030000E5030000DC
:10009000E7030000E9030000EB030000ED030000AC
:1000A000EF030000F1030000F3030000F50300007C
:1000B000F7030000F9030000FB030000FD0300004C
:1000C000FF03000001040000030400000504000019
:1000D00007040000090400000B0400000D040000E8
:1000E0000F040000110400000000000013040000D1
:1000F0001504000017040000190400001B04000090
:100100001D0400001F04000021040000230400005F
:10011000000000000000000025040000270400008B
:10012000290400002B0400002D0400002F0400000F
:1001300031040000330400003504000037040000DF
:1001400000000000000000000000000000000000AF
:10015000390400003B0400003D0400003F0400009F
:10016000000000000000000000000000000000008F
:10017000000000000000000000000000000000007F
:10018000000000000000000000000000000000006F
:10019000000000000000000000000000000000005F
:1001A000000000000000000000000000000000004F
:1001B000410400004304000045040000470400001F
:1001C000490400004B0400004D0400004F040000EF
:1001D00051040000530400005504000057040000BF
:1001E000590400005B0400005D04000000000000F2
:1001F000000000005F0400006104000063040000D0
:10020000650400006704000000000000000000001A
:10021000690400006B0400006D0400006F0400001E
:1002200071040000730400007504000077040000EE
:10023000790400007B0400007D0400007F040000BE
:10024000810400008304000085040000870400008E
:10025000890400008B0400008D0400008F0400005E
:1002600091040000930400009504000000F002F8DF
:1002700000F070F80AA090E8000C82448344AAF1D0
:100280000107DA4501D100F065F8AFF2090EBAE8CE
:100290000F0013F0010F18BFFB1A43F001031847BA
:1002A0009CF60200BCF602000A444FF0000C10F865
:1002B000013B13F0070408BF10F8014B1D1108BFE4
:1002C00010F8015B641E05D010F8016B641E01F884
:1002D000016BF9D113F0080F1EBF10F8014BAD1CD4
:1002E0000C1B09D16D1E58BF01F801CBFAD505E0F2
:1002F00014F8016B01F8016B6D1EF9D59142D6D34C
:10030000704700000023002400250026103A28BF73
:1003100078C1FBD8520728BF30C148BF0B60704777
:1003200066292AF01386642900F03C820020704779
:100330001FB52AF0F1FC9DE8030000F043FC00F03B
:10034000A1FE04000020002129F038F8E0601FBD64
:1003500010B510BD00F0EAFF1146FFF7E9FF1DF0F0
:10036000D7FC01F09BF903B4FFF7F2FF03BC16F0D2
:10037000D1FC00000138FDD170470000EFF3108080
:1003800072B67047EFF310807047EFF3108062B6DB
:10039000704730BF704780F311887047EFF31180CA
:1003A000704700003F4880473F480047FEE7FEE7B0
:1003B000FEE7FEE7FEE7FEE7FEE7FEE7FEE7FEE715
:1003C000FEE7FEE7FEE7FEE7FEE7FEE7FEE7FEE705
:1003D000FEE7FEE7FEE7FEE7FEE7FEE7FEE7FEE7F5
:1003E000FEE7FEE7FEE7FEE7FEE7FEE7FEE7FEE7E5
:1003F000FEE7FEE7FEE7FEE7FEE7FEE7FEE7FEE7D5
:10040000FEE7FEE7FEE7FEE7FEE7FEE7FEE7FEE7C4
:10041000FEE7FEE7FEE7FEE7FEE7FEE7FEE7FEE7B4
:10042000FEE7FEE7FEE7FEE7FEE7FEE7FEE7FEE7A4
:10043000FEE7FEE7FEE7FEE7FEE7FEE7FEE7FEE794
:10044000FEE7FEE7FEE7FEE7FEE7FEE7FEE7FEE784
:10045000FEE7FEE7FEE7FEE7FEE7FEE7FEE7FEE774
:10046000FEE7FEE7FEE7FEE7FEE7FEE7FEE7FEE764
:10047000FEE7FEE7FEE7FEE7FEE7FEE7FEE7FEE754
:10048000FEE7FEE7FEE7FEE7FEE7FEE7FEE7FEE744
:10049000FEE7FEE7FEE7000004480549054A064B73
:1004A00070470000E56601006D0200000068002052
:1004B00000750020006B0020006B0020B5EEC00A24
:1004C000F1EE10FA07D2DFED1E0AB4EEE00AF1EE0B
:1004D00010FAA8BF7047DFED1B0AB5EEC00A60EE48
:1004E000200ABDEEE01A11EE100AF1EE10FA38BF44
:1004F000401E00EE100A1549F7EE001AB8EEC00AC9
:1005000030EEC00ADFED100A60EE200ABCEEE00A11
:1005100010EE100AC0F3080000EE100A01EB800094
:10052000B8EE400A90ED011A70EEC00A90ED000A94
:1005300071EEE01A21EE800A00EE810A7047000099
:10054000CD024CB483F9223E0000004410BA0200F0
:10055000DFED460A60EE200AF5EEC00AF1EE10FA71
:1005600038BFF1EE600ABDEEE01ADFF808C1F7EE21
:10057000004AB0EE085AB8EEC11AB5EEC00A70EEE5
:10058000C10A9FED3B1A20EE811AFCEEC10A10EE63
:10059000902AC2F3080200EE902A02F180030CEBCD
:1005A0008202F8EE600AD2ED001AC3F308030CEBE6
:1005B0008303F1EE612A71EE600AD2ED011A93ED28
:1005C000001A93ED012AF1EE613A74EEE01A32EE70
:1005D000413A61EE811A40EE821A32EEA32ADFED33
:1005E000261A22EE214AB0EE002A42EE223A02EE0C
:1005F000434A23EE053A03EEE13A00EE843A34EE44
:10060000E04A20EE833A02EEA13A00EE831A81ED31
:10061000001A92ED001AD2ED013AD3ED002A24EE31
:10062000014A93ED013A00EEA34A32EE834A73EE9B
:10063000C13A02EE223A24EE214A02EE634A63EE08
:10064000853A43EE613A40EE843A20EEA32A02EE68
:10065000A12A00EE821AF1EE10FA80ED001A3CBFDA
:10066000B1EE410A80ED000A70470000610B363B95
:100670000000004410BA0200DB0F493C704770B51F
:10068000064600F083FA056806F10B0020F0070427
:10069000B4429CBF002070BD2B466A68BAB1106896
:1006A000A04210D304F1080188423CBF5068586052
:1006B00007D35168101941601168091B0160586027
:1006C0001460101D70BD13465268002AE7D1214600
:1006D000284600F063FA0028DED170BD70B50446EC
:1006E000051F00F053FA0068002C14BF446870BD69
:1006F000002C18BFAC423CBF20466468F8D30168A8
:100700000A18AA4218BF456003D12A680546114459
:10071000016028684119A1421CBF6C6070BD61680E
:10072000696021680844286070BD00000FB41CB5E2
:10073000074B06AA7B4469460090059800F085FCAB
:100740000020694600F094FC1CBC5DF814FB00001E
:100750003909000070B5044685690068C10601D5F5
:10076000302600E02026C00707D070BDD4E9012163
:1007700030469047206A401C20626D1EF6D570BD41
:1007800070B5044685690078C00707D170BDD4E90B
:10079000012120209047206A401C20626D1EF6D562
:1007A00070BD00002DE9F04106460024106875294F
:1007B000314616A510D0AFF30080002802DA40427F
:1007C00013A507E031688A0701D512A502E04907A1
:1007D00004D511A5012401E0AFF3008000210A2215
:1007E00006F1240709E0B0FBF2FCB0FBF2F302FBD8
:1007F0001C00303078541846491C0028F3D1234699
:100800002A463046BDE8F04100F01DBA0000000065
:100810002D0000002B000000200000002DE9F04713
:100820004FF0000A89460446C0F820A02046E1683F
:100830008847002876D0252806D0D4E901219047A2
:10084000206A401C2062F1E7E168204600258847C5
:10085000C4F81CA006460027C4F818A02A2E09D008
:10086000304628F037F938B304EB8708303EC8F833
:10087000186019E059F8041B204604EB87029161C7
:10088000E1688847012F064618D1E069002820DA80
:1008900025F020051DE0D8F8180000EB800006EBDD
:1008A00040003038C8F818002046E16888470646FE
:1008B00028F010F90028EED1012F0AD02E2E08D1F1
:1008C0002046E16888477F1C0646022F45F0200538
:1008D000C4DBA069002803DA404245F00105A061AD
:1008E000E80701D025F01005B6B1A6F1410019289E
:1008F00002D8203645F400654A4631462046256038
:100900004D46FFF70DFD58B1012806D0ED1D25F02D
:10091000070000F1080989E704E005F1040985E70B
:1009200030468AE7206ABDE8F08740EA010310B547
:100930009B070FD1042A0DD310C808C9121F9C426F
:10094000F8D020BA19BA884201D9012010BD4FF061
:10095000FF3010BD1AB1D30703D0521C07E00020AE
:1009600010BD10F8013B11F8014B1B1B07D110F80B
:10097000013B11F8014B1B1B01D1921EF1D118460E
:1009800010BD032A40F2308010F0030C00F01580F7
:1009900011F8013BBCF1020F624498BF11F801CB82
:1009A00000F8013B38BF11F8013BA2F1040298BFE7
:1009B00000F801CB38BF00F8013B11F0030300F051
:1009C0002580083AC0F0088051F8043B083A51F8F5
:1009D00004CBA0E80810F5E7121D5CBF51F8043BFA
:1009E00040F8043BAFF30080D20724BF11F8013B6D
:1009F00011F801CB48BF11F8012B24BF00F8013BCF
:100A000000F801CB48BF00F8012B704710B5203A21
:100A1000C0F00B80B1E81850A0E81850B1E81850A9
:100A2000A0E81850203ABFF4F5AF5FEA027C24BF7B
:100A3000B1E81850A0E8185044BF18C918C0BDE864
:100A400010405FEA827C24BF51F8043B40F8043B2D
:100A500008BF7047D20728BF31F8023B48BF11F8E2
:100A6000012B28BF20F8023B48BF00F8012B70473C
:100A70004FF000020429C0F0128010F0030C00F0C7
:100A80001B80CCF1040CBCF1020F18BF00F8012B45
:100A9000A8BF20F8022BA1EB0C0100F00DB85FEA13
:100AA000C17C24BF00F8012B00F8012B48BF00F8DF
:100AB000012B70474FF0000200B51346944696464E
:100AC000203922BFA0E80C50A0E80C50B1F1200161
:100AD000BFF4F7AF090728BFA0E80C5048BF0CC00F
:100AE0005DF804EB890028BF40F8042B08BF70476D
:100AF00048BF20F8022B11F0804F18BF00F8012BDF
:100B0000704700000000000030B44FF0013C50F886
:100B1000042B51F8043BCCFA52F4D51A20D1FCB97D
:100B200050F8042B51F8043BCCFA52F4D51A17D1E3
:100B3000B4B950F8042B51F8043BCCFA52F4D51A4E
:100B40000ED16CB950F8042B51F8043BCCFA52F496
:100B5000D51A05D1002CDAD030BC4FF00000704718
:100B600029BAB1FA81F111F01801D1F120008440C5
:100B7000F2D1CA40CB4012F0FF0213F0FF0330BCA9
:100B8000D01A7047704770477047704700487047E9
:100B9000D8090020704770477047704738B5044641
:100BA0000A4600206946AFF30080002808BF38BD20
:100BB00002460099204600F06DFA012038BD012060
:100BC00000F0ADBBF8B5AFF30080054600200C4641
:100BD000102000BF0646A819A0420DD9324669462A
:100BE0000020AFF30080070008BF00F098FB0098DA
:100BF000A04218BF0546C419FFF7C8FF05600746A5
:100C0000F01D20F007004619284600F00AF8B4420B
:100C100008BFF8BDA21B31463868BDE8F84000F0B7
:100C200039BA00210160C0E90110704710207047F7
:100C300010B500F02BFA006810BD10B5044600F0A6
:100C400025FA046010BD2DE9F0470D4699469246FD
:100C5000044600F124080168880604D5E06921F003
:100C60001001216000E00120A84201DD471B00E0E7
:100C70000027A1697A1902EB0900081AA0612078FF
:100C8000C00602D42046FFF765FD002608E0D4E93F
:100C900001211AF806009047206A401C761C206249
:100CA0004E45F4DB2078C0060AD52046FFF752FDFA
:100CB00006E0D4E9012130209047206A401C2062E0
:100CC000381EA7F10107F4DC07E0D4E9012118F888
:100CD00005009047206A401C2062281EA5F10105EE
:100CE000F3DC2046FFF74CFD2078000602D50220F9
:100CF000BDE8F0870120FBE72DE9F04F1C46834655
:100D00000E468BB0D2E90030149DC10F009120F047
:100D10000041080D01D0012200E00022801A0027C6
:100D2000DA1B61EB005191460A438846A0F2324A31
:100D30000AD0002108462AF097F810F4400F14D08A
:100D40000099A1B1400213E0012D02D00020302112
:100D500005E0E043CDE9060705E03154401CA04220
:100D6000FBDBCDE90674089529E0002005E00002D0
:100D7000002801DA022000E00120012D08950FD0A3
:100D80000021CDE904103046CDE902A4CDE9009858
:100D900009AA06A900F0F0F90790099810B105E03A
:100DA0000121EEE7102108462AF05EF8012D06D158
:100DB000DDE90610641C2144884200DA0897079890
:100DC00006AC375494E80E00CBE90012CBF808309B
:100DD0000BB0BDE8F08F2DE9F04F88460446D21DD8
:100DE00022F00701ADF5477DD1E90001CDE9BE0153
:100DF00024F038FC0246BF98C00F01D02D2007E038
:100E00002068810701D52B2002E0202101EAC000E3
:100E1000032AC09001D0072A05DB0346414620463D
:100E200000F06AF908E12078800601D5E06900E069
:100E3000062040F2F123B8F1650F814606D0B8F1E3
:100E4000660F16D0B8F1670F6BD12FE00020B9F50F
:100E50003C7F009001DC09F10103BEAA01A9C1A8F1
:100E6000FFF74AFFDDE9C170002609F1010583465D
:100E700044E001204B4600904FF00047BEAA01A974
:100E8000C1A8FFF739FFDDE9C2B0C1995D46002670
:100E900010B909F101000D18B9EB050003D4C0F138
:100EA000FF3609F10105A5EB090028E0B9F1010FB2
:100EB00001DA4FF00109002099450090484600DC16
:100EC0000346BEAA01A9C1A8FFF716FFDDE9C1705C
:100ED0004D4600268346207800070AD4AB4500DA49
:100EE0005D4601A8012D04DD411911F8011C3029CE
:100EF00007D04F4502DA17F1040F04DA01208246C9
:100F00000FE06D1EEEE7002F02DCED1B3E4403E018
:100F1000781CA84200DD7D1CB81B00F1010A4FF0CF
:100F200000472078000703D4AA4501DB4FF0FF3AC1
:100F30000021B7F1004F0DF217388DF8171324D0A8
:100F400002202B23002F01DA7F422D230A21021ECB
:100F5000A0F1010000DC5FB197FBF1FC97FBF1F21F
:100F600001FB1C7C17460CF1300C08F801CDEEE7B4
:100F7000A8F1010003702188090501D5452100E091
:100F80006521A0F1010800F8011CC098C4A9A1EBDB
:100F90000807FF1D00B10120411901EBEA70A169AA
:100FA0003844081A401EA0612078C00602D42046AA
:100FB000FFF7D0FBC09828B1D4E901219047206AFF
:100FC000401C20622078C00622D52046FFF7C2FBD5
:100FD0001EE0002E04DBB34502DD01A8805D00E0C9
:100FE0003020D4E901219047206A401C2062761C01
:100FF000AAF101005FEA000A0AD100F043F8C068D4
:101000000168405CD4E901219047206A401C2062BD
:10101000281EA5F10105DCDC07E0D4E9012118F860
:10102000010B9047206A401C2062381EA7F101077F
:10103000F3DC2046FFF7A4FB03200DF5477DC8E64F
:1010400001694A1C02610878704700B58FB0CDE98C
:1010500001310021059105497944CDE9031011467C
:101060006846FFF7DBFB0FB000BD0000E5FFFFFFA8
:101070000A6802F8010B0A607047000000487047D8
:10108000D009002000487047F00900200048704750
:10109000D0090020034640688C46002818BF8842CB
:1010A0003CBF03464068F8D318681844884207D00C
:1010B0000CF1030020F00700001D411A521A0146EE
:1010C000081D0A60FFF70ABB1FB584B000200A9C08
:1010D00006AB04AA02A90094AFF3008018B1DDE9C1
:1010E000020108B010BD0348204000F0E5FA0020DE
:1010F0000146F6E70000207C2DE9F0411F4604463A
:1011000003260168072A01F4006004DB08B116A574
:1011100005E016A503E008B115A500E015A521F02E
:1011200010002060A069C01EA0610FB1401EA06128
:101130002046FFF70FFB4FB1D4E901213846904715
:10114000206A401C2062C01C206206E0206AFAE788
:10115000D4E9012115F8010B9047761EF8D22046FC
:10116000FFF70EFBBDE8F0814E414E006E616E0050
:10117000494E4600696E66002DE9FF4F0446ADF505
:10118000437DD1AB93E82500D099DDF854830091DD
:10119000CDE90102C0AAC1A903A800F005FA0346DF
:1011A000C198D499064641B11D446D1C012D04DA45
:1011B000C5F10101012508440B44A6464FF0FF325A
:1011C0004FF0390B002124E0401EB04201D300272C
:1011D0000CE0DDF800C387083CF817704FEA807C0C
:1011E0004FEA1C7C27FA0CF707F00F076D1E092F3A
:1011F0000EDA002A02DB303204F8012B5A460029AD
:1012000003DD491E04F8012BF9E700213A4600E00E
:10121000491C08B1002DD7DC4FF0010CB8F1020FCA
:1012200008D0B8F1010F07D0A0B1401EB04205D3DD
:1012300000270CE0002522E0022520E0C09F850861
:1012400037F8155087073F0FFD4005F00F07052FB2
:1012500002DB04E04FF000074FF0000507E003DC7D
:10126000002901DCD50701D0012500E002250FB1DE
:101270004FF0000C022D02D0BCF1000F22D04FF035
:101280000009DDF800A313E0401EB04201D300279F
:101290000BE04FEA90083AF818704FEA80784FEA6E
:1012A000187827FA08F707F00F070FB1012004E0BC
:1012B0000028E9D1B9F1000001D04FF0000C022D57
:1012C00000D10546012D02F101000AD010B13032E3
:1012D00004F8012B5846002916DD491E04F8010BBD
:1012E000F9E718B1313204F8012B06E0312004F897
:1012F000010BD4985B1C00B9491E3020002903DD86
:10130000491E04F8010BF9E7C4980360C598C0F8BA
:1013100000C00DF5477DA4EB0E00BDE8F08F10B5C1
:1013200000F0D2F9BDE8104000F0C1B97546FFF7F2
:10133000A5FEAE4605006946534620F007008546E7
:1013400018B020B5FFF7A8F8BDE820404FF0000620
:101350004FF000074FF000084FF0000BAC46ACE830
:10136000C009ACE8C009ACE8C009ACE8C00921F08C
:1013700007018D4670470000810B43F26D425143D7
:10138000490B01EB107101EB507070472DE9FF5FC5
:10139000804600252F46DDF838A02CE0019900207A
:1013A000044631F817B021E0544503D2039931F8CF
:1013B000141000E000210BFB0100B0B13E19002128
:1013C00002E028F815106D1CB542FAD938F816104D
:1013D000014489460846FFF7CFFF6FF41C7100FBFC
:1013E00001F209EB021128F81610641C5445DBD3F6
:1013F0000028D9D17F1C02988742CFD3284604B059
:10140000BDE8F09F2DE9FF4F87B003AC0123002515
:10141000159EADF8182084E80B000A9B0121DBB172
:10142000B3FA83F0C0F11F0783EA53000DF10C0BF0
:1014300080EA900080EA101080EA102080EA1040D4
:1014400000F00100784021EA00045BF824000280EB
:1014500001A840F8241072E00180169808B100211C
:10146000016001200BB0BDE8F08F0DF1040858F8C1
:10147000242000925BF82410C4F101045BF82400DE
:101480000B46FFF783FF48F824000A996D000120FE
:10149000B84008420ED0059806AB009058F82420BA
:1014A0005BF82410C4F101045BF82400FFF76EFF21
:1014B00048F82400149890B358F82400B0423ED95C
:1014C000811B1498002827DD4FF0000948464A4642
:1014D0005BF82430DFF8C0E116E033F812C01CEBF3
:1014E000000010D041F6372C824600FB0CF040F291
:1014F000712C0EEBC000400F00FB0CF8BAEB081F7C
:1015000001D04FF00109521C8A42E6D333F811C0D2
:101510004844604423F811005B46002009E00EE0D7
:1015200053F8242000EB010C32F81CC022F810C044
:10153000401CB042F4D301A80D4440F824607F1E43
:1015400093D5169800B1056001A850F8240089E7EA
:101550002DE9F0438946844600210A460B461DE0EA
:101560004B4502D23CF8134021444FF00A080025B5
:101570002C46B1FBF8F6970708FB16163F0FB1FB98
:10158000F8F106FA07F72F43521CBDB206B1104618
:10159000641C042CEDD32CF813505B1C4B45DFD39B
:1015A0000029DDD1BDE8F0832DE9FF4F824689B0E7
:1015B0000526DDF860B035E0042E0DDA22464FF442
:1015C0000050ADF804000120009001AB03A906A86B
:1015D000FFF7DCFE074600E0002706EB860000EB85
:1015E000C602DDE9160100F097F800240DF1180895
:1015F0000DF10C09C0F30C0510E0BC4202D238F822
:10160000140005442846FFF7B7FE6FF41C714143F0
:1016100005EB0111054629F81410641CBC42ECD3FB
:10162000002DEAD1301EA6F10106C5DC0025BBF174
:10163000000128460AF5BD7609DD0B465146022217
:101640000090019002903046FFF7DCFE0FE00BDACD
:1016500051460522CBF100030090019002903046E4
:10166000FFF7D0FE5D4602E00120AAF87A0133467A
:10167000224603A900905046FFF788FE0B9A0146C8
:101680005046C2F800A0FFF763FF0A996D1E08607C
:1016900028440DB0E7E6000000F0FFFF10B5044657
:1016A000AFF300802046BDE81040FEF75CBE002886
:1016B00001D015F02FBB704710B500F059F8BDE808
:1016C0001040FFF7F4BF000010B5012805D000213D
:1016D00003A000F034F8012010BD09A1F8E70000D4
:1016E00053494752544D454D3A204F7574206F660B
:1016F0002068656170206D656D6F72790000000073
:101700003A2048656170206D656D6F727920636F56
:101710007272757074656400B2F120030AD5C2F16B
:10172000200320FA02F001FA03F340EA030021FA51
:1017300002F1704721FA03F04FF00001704770B5D5
:1017400005460C460A2000E06D1C15F0E5FA35B19F
:1017500028780028F8D102E0641C15F0DDFA14B1F5
:1017600020780028F8D1BDE870400A2015F0D4BADE
:1017700010B5022803D0410103D50DA112E00020CD
:1017800010BD010101D50FA10CE0C10001D511A1CF
:1017900008E0810001D512A104E0400001D513A1A9
:1017A00000E0002115A0FFF7CAFF012010BD0000D6
:1017B000496E76616C6964204F7065726174696FFF
:1017C0006E000000446976696465204279205A659C
:1017D000726F00004F766572666C6F7700000000D4
:1017E000556E646572666C6F77000000496E6578AF
:1017F00061637420526573756C74000053494746E9
:1018000050453A2041726974686D6574696320655A
:101810007863657074696F6E3A200000B0B52DED85
:10182000068B48F2AC04C4F20304206810F4807FF5
:101830003DD1206810F4807F1DD100BF54F8040C06
:10184000216811F4807F11D154F8040C216811F43F
:10185000807F0BD154F8040C216811F4807F05D1EE
:1018600054F8040C216811F4807FE7D000EE100AD0
:10187000B8EE408A01E09FED128A41F6F0559FEDE7
:10188000119A9FED11AAC2F2000502F01BF895ED26
:10189000001A88EE093A9FED0D2A23EE0A3AB0EEBF
:1018A000414A13EE004A04EE021A85ED001AA4F133
:1018B000AC000321BDEC068BBDE8B04020F0BFBBFF
:1018C0000000000000F07F45333353400AD7A33CAB
:1018D00040F6A0410020C2F200010A78012A18BF98
:1018E00070470870487801281CBF0120704700200D
:1018F0004870012070470000B0B540F6A045C2F224
:101900000005287878B918F02BFC01280BD140F29B
:10191000940001240A21C2F200002C70017000F032
:1019200019F82046B0BD00242046B0BD40F6E03195
:101930000020C2F200014A78012A18BF704780B522
:101940004870FFF7C5FF13F027FB0120BDE880407A
:10195000704700002DE9F04381B02DED068B40F675
:10196000E035C2F20005687830B100242046BDECB5
:10197000068B01B0BDE8F08318F000FC00240128BC
:1019800040F0F4800120687018F0D6FB13F002FEDE
:101990000020012185ED060AAC7002F05DF8002000
:1019A0000221B0EE408A02F057F800200321B0EE89
:1019B000409A02F051F800200421B0EE40AA02F053
:1019C0004BF843F218554DF2A54601200121C2F211
:1019D0000005C5F2683685ED058A85ED069A85ED28
:1019E00007AA85ED080AC5E90966C5E90B66C5E9D8
:1019F0000D66C5E90144C5E9034402F02DF8012054
:101A00000221B0EE408A02F027F801200321B0EE57
:101A1000409A02F021F801200421B0EE40AA02F021
:101A20001BF80220012185ED148A85ED159A85EDBC
:101A300016AA85ED170AC5E91866C5E91A66C5E94B
:101A40001C66C5E91044C5E9124402F005F80220FD
:101A50000221B0EE408A01F0FFFF02200321B0EE28
:101A6000409A01F0F9FF02200421B0EE40AA01F0F3
:101A7000F3FF002085ED238A85ED249A85ED25AAC4
:101A800085ED260AC5E92766C5E92966C5E92B66FD
:101A9000C5E91F44C5E9214401F0BEFF41F64805F0
:101AA00043F233380020B0EE408AB7EE009AC2F21B
:101AB0000005C3F6337889EE08AA01F0E5FF40F28D
:101AC0000009002644F200070120C4F22019C4F2E4
:101AD000FA36C4F29C57C5E90089C5E90267C5E931
:101AE00006442C622C6485ED048A85ED05AA85EDFB
:101AF000110AC5E90A44C5E90C4401F08DFFB0EEB6
:101B0000408A012089EE089A01F0BEFF0220C5E953
:101B10001389C5E91567C5E91944EC66C5F88C4019
:101B200085ED178A85ED189A85ED240AC5E91D44CF
:101B3000C5E91F4401F0A8FF00204DF20A71C5F865
:101B4000B840C5F8D840C5E92689C4F24830C3F684
:101B5000A331C5E92800C5E92A10C5E92C4485ED63
:101B6000370AC5E93044C5E9324401242046BDECBA
:101B7000068B01B0BDE8F08340F6E030C2F2000011
:101B800090ED080A7047000040F6E030C2F2000015
:101B900090ED070A7047000080B52DED048BB0EE84
:101BA000608AB0EE409A28EE080A09EE090AB5EEFE
:101BB000C00AF1EE10FA0EDB26F09BF99FED0E1A2B
:101BC000B4EEC10AF1EE10FAC2BF81EE000A20EEB7
:101BD000088A20EE099A40F6E030C2F2000041780F
:101BE000012911BF002080ED079A80ED088A0120AD
:101BF000BDEC048B80BD00BFCDCC4C3F40F6E03146
:101C0000C2F200014878012811BF0020012088702D
:101C100081ED090A7047000010B52DED028B40F6EA
:101C2000E034B0EE408AC2F20004607801281EBFA2
:101C30000020BDEC028B10BD18F07EFA13F0AAFC58
:101C4000A07840B10020A07043F21850C2F200000A
:101C500080ED1F0A05E043F21850C2F2000090ED3B
:101C60001F0A30EE080A012084ED060ABDEC028B43
:101C700010BD000040F6E030C2F2000041780129BA
:101C800012BF002080ED050A0120704740F6E030C9
:101C9000C2F20000417801291CBF00207047817802
:101CA00001291CBF0120704702218170012070476B
:101CB0002DE9F04F81B02DED108B86B0002004F09F
:101CC00005FB417881B1817871B190F82210082923
:101CD0000AD8012202FA01F111F4B47F04D090F87D
:101CE0002300002800F09980012004F0EFFA4178E9
:101CF00081B1817871B190F8221008290AD80122A7
:101D000002FA01F111F4B47F04D090F82300002806
:101D100000F08580022004F0D9FA417879B1817809
:101D200069B190F82210082909D8012202FA01F1BC
:101D300011F4B47F03D090F82300002871D0032061
:101D400004F0C4FA417879B1817869B190F8221031
:101D5000082909D8012202FA01F111F4B47F03D055
:101D600090F8230000285ED0042004F0AFFA4178F8
:101D700079B1817869B190F82210082909D8012237
:101D800002FA01F111F4B47F03D090F82300002887
:101D90004BD0052004F09AFA417871B1817861B195
:101DA00090F82210082908D8012202FA01F111F452
:101DB000B47F02D090F82300C8B3062004F086FA5E
:101DC000417871B1817861B190F82210082908D862
:101DD000012202FA01F111F4B47F02D090F823003D
:101DE00038B3072004F072FA417871B1817861B19B
:101DF00090F82210082908D8012202FA01F111F402
:101E0000B47F02D090F82300D0B140F6D05000212A
:101E1000C2F20000416300F028BC002011E0012064
:101E20000FE002200DE003200BE0042009E0052074
:101E300007E0062005E000BF000000006F12833AB3
:101E40000720C0B204F042FA40F6B071C768C2F28F
:101E50000001D1E908325740024652F8086F73403A
:101E60003B4303D00378002B01F0978140F650608C
:101E700040F6D0520021C2F20002C2F2000092ED00
:101E80000C0AC0E90B11506B40F6D0540130C2F27D
:101E90000004606318F018FFB0EE408A94ED0C0A5D
:101EA000B0EE609AB0EE41AAB0EE61BA18F02CFE26
:101EB00040F6506545F60074B0EE414AB0EE402A57
:101EC0001FED23CAB0EE603A0420C2F20004C2F251
:101ED000000594ED016A95ED0B1A94ED050A94ED59
:101EE000027AD4ED030AD4ED041A31EE465A94ED89
:101EF000091A207065EE002AB0EE4C5AF4EEC12AA1
:101F0000F1EE10FA0EDC94ED0A1AB0EE4C5AB1EE76
:101F1000411AF4EEC12AF1EE10FAA4BFB0EE405A15
:101F2000B0EE621AD4ED063AD4ED0B4A67EE457A6C
:101F300031EE47DA60EEC56A61EE852A20EE850A49
:101F400067EE055A37EEE05A36EEE11AF0EE4C6ACB
:101F500063EE8D7AF4EEE47AF1EE10FA0EDCD4ED55
:101F60000C4AF0EE4C6AF1EE644AF4EEE47AF1EEDB
:101F700010FAA4BFF0EE636AF0EE674A74EEE53A39
:101F8000D4ED074A15EE260AD4ED0D5A51EE262A55
:101F9000F0EE4C6A33EEE05A70EE613A24EE851AA8
:101FA000B4EEE51AF1EE10FA0EDC94ED0E5AF0EEF6
:101FB0004C6AF1EE455AB4EEE51AF1EE10FAA4BF00
:101FC000F0EE415AF0EE646A70EE254AD4ED085AFC
:101FD00043EEA62A94ED100AD5ED0C6A1FED69DADE
:101FE00094ED111A94ED125A042074EEE13AD4EDF6
:101FF000184A45EEA32AD4ED143A76EEC05A07EEFD
:102000000D6A00EE8D7A41EE8D0A42EE8D1AD4ED06
:10201000132A84F83C0084ED016A84ED027AC4ED51
:10202000030AF0EE4C0A65EEA35AC4ED041AF4EE6E
:10203000E45AF1EE10FA0EDC94ED196AF0EE4C0A57
:10204000F1EE464AF4EEE45AF1EE10FAA4BFF0EED7
:10205000630AF0EE654AD4ED156A74EEC17AD4EDE8
:102060001A3A65EE601A61EE605A22EEA06A25EE19
:10207000207A61EE204A71EEE20A75EEC51AF0EEA2
:102080004C5A66EEA77AF4EEE37AF1EE10FA0EDC23
:10209000D4ED1B3AF0EE4C5AF1EE633AF4EEE37AEB
:1020A000F1EE10FAA4BFF0EE665AF0EE673A73EE66
:1020B000E46AD4ED163A11EEA57AD4ED1C4A10EE7E
:1020C000A56AF0EE4C5A76EEC51A77EE620A63EE18
:1020D000A11AF4EEE41AF1EE10FA0EDCD4ED1D4A6A
:1020E000F0EE4C5AF1EE644AF4EEE41AF1EE10FA16
:1020F000A4BFF0EE614AF0EE635A37EE247AD4EDD5
:10210000171A00EEA56A01EE0D0A05EE0D1A02EE91
:102110008D5AF0EE490A37EE627A84ED100A84EDAA
:10212000111A84ED125AB0EE480AB0EE4A1A01EEC6
:10213000876AF0EE4B1A46EE0D2AC4ED132AF0EE34
:10214000432AB0EE443A13F033FB44F2D806B0EE23
:10215000401A0420C2F2000696ED014A96ED052AC7
:1021600096ED025A96ED036A96ED047A30EE443A03
:1021700096ED090A307063EE021AB0EE4C3AF4EEB6
:10218000C01AF1EE10FA0EDC96ED0A0AB0EE4C3AE7
:10219000B1EE400AF4EEC01AF1EE10FAA4BFB0EEB0
:1021A000423AB0EE610AD6ED062A70EE456AD6EDE7
:1021B0000B3A26EE432A65EE435A67EE031A26EEE3
:1021C000030A65EE034A35EEC63A32EE472AF0EED0
:1021D0004C5A62EEA66AF4EEE36AF1EE10FA0EDCF7
:1021E000D6ED0C3AF0EE4C5AF1EE633AF4EEE36AB7
:1021F000F1EE10FAA4BFF0EE625AF0EE663A73EE1A
:10220000E42AD6ED073A13EE250AD6ED0D4A52EE32
:10221000251AF0EE4C5A32EEC63A70EE472A23EEFB
:10222000832AB4EEE42AF1EE10FA0EDC96ED0E3AB3
:10223000F0EE4C5AF1EE434AB4EEE42AF1EE10FA15
:10224000A4BFF0EE424AF0EE635A70EE243AD6EDA7
:10225000084A42EEA51A96ED100A05EE0D4A06EE62
:102260000D5A96ED112A96ED123A042007EE0D6AEA
:1022700073EEC72AD6ED183A44EEA21AD6ED142A08
:1022800070EEC04A01EE8D7AD6ED131A86F83C0046
:1022900086ED014A86ED025A86ED036AB0EE4C6A7D
:1022A00064EEA24A86ED047AF4EEE34AF1EE10FA07
:1022B0000EDC96ED194AB0EE4C6AF1EE443AF4EEBB
:1022C000E34AF1EE10FAA4BFB0EE626AF0EE643AAF
:1022D000D6ED154A73EEC26AD6ED1A2A23EE467A77
:1022E00062EE465A21EE864A23EE065A62EE063A1E
:1022F00037EE616A35EEC37AF0EE4C5A64EEA66AA8
:10230000F4EEE26AF1EE10FA0EDCD6ED1B2AF0EEE6
:102310004C5AF1EE622AF4EEE26AF1EE10FAA4BF32
:10232000F0EE645AF0EE662A72EEE34AD6ED162A13
:1023300017EE255AD6ED1C3A16EE254A34EEC37A2E
:1023400035EE616AF0EE4C4A22EE877AB4EEE37A1B
:10235000F1EE10FA0EDCD6ED1D3AF0EE4C4AF1EE3D
:10236000633AB4EEE37AF1EE10FAA4BFF0EE473A26
:10237000F0EE624A35EE235A96ED177A06EE244ABD
:1023800002EE0D0A03EE0D2A01EE8D3A86ED100ADB
:1023900035EE615AB0EE600AF0EE410A86ED112A80
:1023A00086ED123A07EE054A44EE0D1AC6ED131AF1
:1023B00024F06EF8D5ED0B8AB0EE409A24F02CFA9A
:1023C000B0EE40AAD5ED0C9AB0EE490A25F08CFC8F
:1023D000B0EE40BA95ED0BEAB0EE490A25F084FC68
:1023E000B0EE408A95ED0CFA41F26035B0EE490A44
:1023F00029EE8BBAC2F2000524F00EFA95ED014ADF
:1024000008EE8ABA95ED052A95ED091A95ED025A5E
:1024100095ED036A95ED047A042028703BEE443A6A
:1024200063EE020AB0EE4C3AF4EEC10AF1EE10FA95
:102430000EDC95ED0A1AB0EE4C3AB1EE411AF4EE0C
:10244000C10AF1EE10FAA4BFB0EE423AB0EE601A43
:10245000D5ED063A71EE455AD5ED0B1A26EE432A14
:1024600065EE434A6FEE000A27EE030A26EE031AD2
:1024700065EE032A34EEC63A32EE472AF0EE4C4AB5
:1024800063EEA55AF4EEE15AF1EE10FA0EDCD5ED4A
:102490000C1AF0EE4C4AF1EE611AF4EEE15AF1EE4C
:1024A00010FAA4BFF0EE634AF0EE651A71EEE21A7C
:1024B000D5ED072A13EE241AD5ED0D3A12EE240AB3
:1024C0004EEE480AF0EE4C4A31EEC63A71EE471A2B
:1024D00022EE832AB4EEE32AF1EE10FA0EDC95ED3B
:1024E0000E3AF0EE4C4AF1EE433AB4EEE32AF1EE46
:1024F00010FAA4BFF0EE423AF0EE624A71EE232ADF
:10250000D5ED083A95ED101A01EEA40A05EE0D4A34
:1025100006EE0D5A07EE0D6A95ED112A95ED123A69
:10252000042072EEC71AD5ED142A03EEA10AD5EDE8
:10253000131A70EEC10A00EE0D7A95ED180A60EEDE
:10254000A20A85F83C0085ED014A85ED025AB0EEFD
:102550004C5A85ED036A85ED047AF4EEC00AF1EE7B
:1025600010FA0EDC95ED190AB0EE4C5AB1EE400AA5
:10257000F4EEC00AF1EE10FAA4BFB0EE625AB0EE6B
:10258000600A95ED157A70EE424AD5ED1A0A23EEEF
:10259000456A62EE453A21EE850A23EE054A62EE6F
:1025A000052A36EE615A33EEC36AF0EE4C3A67EE16
:1025B000244AF4EEE04AF1EE10FA0EDCD5ED1B0AE7
:1025C000F0EE4C3AF1EE600AF4EEE04AF1EE10FA69
:1025D000A4BFF0EE473AF0EE640A70EEE22AD5EDC1
:1025E000160A16EE234A95ED1C7A15EE230A32EEF2
:1025F000C36A34EE615A20EE866AB4EEC76AF1EE21
:1026000010FA0CDC95ED1D7AB1EE477AB4EEC76A8C
:10261000F1EE10FAA4BFB0EE467AB0EE60CA34EE26
:10262000074A95ED176A05EE0C0A02EE0D1A03EE45
:102630000D2A01EE8D3AD4ED010A34EE614A85EDA2
:10264000101A85ED112A85ED123A06EE040A40EEC5
:102650000D1A94ED100AC5ED131A23F019FFD6EDEB
:10266000010A96ED100A23F013FF002041F68C2B8F
:1026700040F6D0564025FEEE009AF6EE008AF7EEC0
:1026800000AAB2EE048A4FF000084FF0000A0024BE
:102690008DF81600ADF814004DF2E400C2F2000B04
:1026A000C2F20006C0F2020000780090E0B203F02F
:1026B000FFFD07460078CDF81080002800F0FE816D
:1026C00044F69C4044F6A4410295C2F20000C2F2D6
:1026D0000001007800284FF6FF7018BF012009881C
:1026E000A1EB0002134618BF9633884298BF1346E9
:1026F000D6E91A09D6E91C5E3A4600EB830C44F68B
:102700000870C2F20000038844F60070C2F20000B4
:10271000077845F26C10C2F20000002F4FF6FF77E9
:1027200018BF01270394A3EB0706344618BF96345D
:102730009F4298BF3446038845F26410C2F20000FD
:1027400009EB8409077845F2C830C2F20000002F77
:102750004FF6FF7718BF0127A3EB0704264618BFE3
:1027600096369F4298BF2646077845F2D030C2F28F
:10277000000005EB8603002F4FF6FF7718BF0127F7
:10278000068841F20010C2F20000A6EB07044044A4
:10279000254618BF9635B74290ED160A92ED093AD4
:1027A00090ED171A92ED0A4A90ED182A92ED0B5A05
:1027B000019298BF2546039C93ED00DA99ED00EA5B
:1027C0009CED00FA0EEB850035EE429A34EE41AAFC
:1027D00033EE40BA90ED00CA0098A04221D001F03B
:1027E000B5F8B0EE603AB0EE615AB0EE414AB0EEE4
:1027F000402AB0EE4F0AF0EE4E0AB0EE4D1AF0EE5F
:102800004C1AF0EE432AB0EE443AF0EE453A12F09C
:1028100061FEB0EE40FAB0EE60EAB0EE41DAB0EE42
:1028200061CA029DB0EE4F0AF0EE4E0AB0EE4D1AAC
:10283000F0EE4C1AB0EE4B2AF0EE4A2AB0EE493ACE
:1028400012F0B6FF41F20010B0EE40BAB0EE60AA4E
:10285000B0EE419AC2F200000146405901EB050872
:10286000D8F8041013F08EFF002800F0378141F2F1
:102870000010019FD8F8043040F6D056C2F2000094
:10288000C2F200064259D7E902104A4043401A43B7
:1028900000F05C829BED021A9BED010A9BED063A6B
:1028A0009BED074A9BED032A9BED085A9BED046ABA
:1028B0009BED097A05AA0123C8F8040004201355EA
:1028C00041F200127BEE400AF0EE414A7AEE431AE2
:1028D000F0EE446A62EE293A65EE295A61EE292A41
:1028E000C2F2000250EEA84A51EEA86A515164EEBD
:1028F000290A72EEC21A73EEC67A35EEC7AA41F6FD
:10290000403144EEA82A41EEA83AC2F2000170EE2E
:10291000C54A46EEA80A44EEA85A67EEA81A6AEE1F
:10292000284A72EEC22A70EEC50A73EEC66A42EEFB
:10293000A83A46EE681A47EE684A46EEA81A75EEBF
:10294000C72A40EEA85AD7ED040A73EEC63A8BF8B0
:1029500000008BF8140042EEA84A43EEA81A00EEDD
:10296000810A00EE821A00EE862A00EE843A00EE1A
:10297000854A00EE875A00EEA16A8BED010A75EEDA
:10298000C72A8BED021A8BED032A8BED046A8BEDBF
:10299000063A8BED074A8BED085A42EEA84A00EE44
:1029A000A47A8BED097A8BF8280011F80A009BEDC8
:1029B0000C1A9BED0B0A9BED0D2A9BED0E3A00289D
:1029C00039EE404AB0EE417A22EE296A21EE295AC8
:1029D00000EE810A00EE821A14EE287A8BED0B0AC3
:1029E00035EE424A76EE431A8BED0C1A07EE285A62
:1029F00004EE286A21EEA84A35EE425A36EE437AB2
:102A000000EE832A03EE684A05EE286A8BED0D2A54
:102A100007EE284A36EE435A05EE284A00EE843A7D
:102A20008BED0E3A97ED090A00F0BF8001EB0A002A
:102A300090ED071A90ED083A90ED014A90ED025A98
:102A4000D0ED090A90ED036AD0ED0A1A90ED047AF0
:102A500031EE012A30EE022A33EE022A90ED0B3AD3
:102A600024EE022A90ED0C4A00EEC52A01EEC62A99
:102A700090ED0D6A33EE035AD0ED061A32EE055A88
:102A800034EE054A90ED055A27EE044A90ED0E7A91
:102A900080ED070A80ED081A80ED092AC0ED0A0AC8
:102AA00080ED0B2A80ED0C3A06EE454A07EE614AAE
:102AB00080ED0D4A80ED0E6A89E000BF41F2001002
:102AC000C2F20000284413F061FE3FE10000000064
:102AD0000BD7233C0AD7A33CCDCC4C3D002041F67C
:102AE0004034F0EE480ACBE90200CBF810008BED41
:102AF00001BACBE90700CBF824008BED06AACBE99D
:102B00000C00CBF838008BED0B9AC2F20004DDF814
:102B1000049004EB0A05D9F82400C5E90700C5E9CB
:102B20000900C5E90B00C5E90D00D9F82800C5E981
:102B30001600C5E91800C5E91A00C5E91C00D9F856
:102B40002C00C5E92500C5E92700C5E92900C5E92C
:102B50002B00284699ED040A8AEE800A02F098FDBF
:102B600014F80A002F1D85F83C008ECFD5E90564C6
:102B700085F8780005F140008EC005F17C00C5E9BC
:102B800014648EC0C5E9236441F2001540F6D056A6
:102B9000C2F20005D9E90201039CC2F200062A46EE
:102BA000029DC8F804105051D0E001EB0A0080EDFE
:102BB000070A80ED080A80ED090A80ED0A0A80ED17
:102BC0000B0A80ED0C0A80ED0D0A80ED0E0A01EB78
:102BD0000A0097ED0A0A90F83C10002900F08F8057
:102BE00090ED161A90ED173A90ED104A90ED115AAB
:102BF000D0ED180A90ED126AD0ED191A90ED137A03
:102C000031EE012A30EE022A33EE022A90ED1A3A12
:102C100024EE022A90ED1B4A00EEC52A01EEC62AD8
:102C200090ED1C6A33EE035AD0ED151A32EE055AB8
:102C300034EE054A90ED145A27EE044A90ED1D7AC1
:102C400080ED160A80ED171A80ED182AC0ED190ADA
:102C500080ED1A2A80ED1B3A06EE454A07EE614ADE
:102C600080ED1C4A80ED1D6A90F8781097ED0B0AF4
:102C700000295AD090ED251A90ED263A90ED1F4A82
:102C800090ED205AD0ED270A90ED216AD0ED281A58
:102C900090ED227A31EE012A30EE022A33EE022A3A
:102CA00090ED293A24EE022A90ED2A4A00EEC52A38
:102CB00001EEC62A90ED2B6A33EE035AD0ED241AAA
:102CC00032EE055A34EE054A90ED235A27EE044AB7
:102CD00090ED2C7A80ED250A80ED261A80ED272ACA
:102CE000C0ED280A80ED292A80ED2A3A06EE454AF1
:102CF00007EE614A80ED2B4A80ED2C6A26E080EDDC
:102D0000160A80ED170A80ED180A80ED190A80ED89
:102D10001A0A80ED1B0A80ED1C0A80ED1D0A90F84E
:102D2000781097ED0B0A0029A4D180ED250A80EDDB
:102D3000260A80ED270A80ED280A80ED290A80ED19
:102D40002A0A80ED2B0A80ED2C0A00BFDDF81080E6
:102D50000AF1B40A08350BF13C0B0134BAF5077FD0
:102D600008F10C087FF4A2ACF088B0F5FA6F36D801
:102D7000009841F68C2140F2A004C2F20001C2F298
:102D80000004C0EB001001EB800006F15C01D1EC07
:102D9000030A94ED040A90ED012AD0ED062A90ED85
:102DA0000B3A12F005FD23F073FB1FEDB82A06F174
:102DB0005C00B0EE403A94ED040AD0EC030AF0EE69
:102DC000422A12F069FD06F15C0084ED040AC0ECB1
:102DD000030A06B0BDEC108B01B0BDE8F08F0020F7
:102DE000002403F065FA41F68C290078C2F200094C
:102DF00000284F467CD041F64030C2F2000090EDF2
:102E00000DAA90ED1C9A90ED2B8A7078002871D055
:102E100040F6506441F200105FEDD32A4FF6FF7A7E
:102E2000C2F20004C2F2000090ED171A94ED144AA9
:102E300090ED160A94ED133A90ED182A94ED155A78
:102E400074EE410A79EE411A33EE407A3AEE406A66
:102E500035EE425A38EE424A31EEE01A36EE470A73
:102E600034EE452A21EE013A00EE003A02EE023A33
:102E7000B4EEE23AF1EE10FA4ADD60EEA00A61EE3D
:102E8000A11A47EE070A46EE061A45EE050A44EE79
:102E9000041A31EEE04A5FEDF11A24EE284A84EE7E
:102EA000033A61EE030A20EE030A22EE031A1FF032
:102EB00083F841F200101FEDF82A84ED13AA84ED87
:102EC000149A84ED158AC2F2000090ED163A90ED46
:102ED000174A90ED185A00EE023A00EE824A01EECF
:102EE000025A80ED163A80ED174A80ED185A0FE02D
:102EF00074700BE040F65060C2F2000080ED13AA3F
:102F000080ED149A80ED158A012070704FF6FF7ADB
:102F1000012003F0CDF9007800287AD041F6403046
:102F2000C2F2000090ED3AAA90ED499A90ED588ACD
:102F3000B07801286FD140F6506441F20010DFED07
:102F4000F02AC2F20004C2F2000090ED1A1A94EDC9
:102F5000174A90ED190A94ED163A90ED1B2A94ED5C
:102F6000185A74EE410A79EE411A33EE407A3AEE7D
:102F7000406A35EE425A38EE424A31EEE01A36EEF9
:102F8000470A34EE452A21EE013A00EE003A02EEFD
:102F9000023AB4EEE23AF1EE10FA48DD60EEA00A31
:102FA00061EEA11A47EE070A46EE061A45EE050A3B
:102FB00044EE041A31EEE04ADFEDD21A24EE284A3C
:102FC00084EE033A61EE030A20EE030A22EE031AAE
:102FD0001EF0F2FF41F200109FEDCB2A84ED16AAFD
:102FE00084ED179A84ED188AC2F2000090ED193A28
:102FF00090ED1A4A90ED1B5A00EE023A00EE824A1A
:1030000001EE025A80ED193A80ED1A4A80ED1B5A02
:103010000DE000200AE040F65060C2F2000080EDB2
:1030200016AA80ED179A80ED188A0120B070022050
:1030300003F03EF9007800287AD041F64030C2F221
:10304000000090ED67AA90ED769A90ED858AF07871
:1030500001286FD140F6506441F20010DFEDA82A3C
:10306000C2F20004C2F2000090ED1D1A94ED1A4A5B
:1030700090ED1C0A94ED193A90ED1E2A94ED1B5A1E
:1030800074EE410A79EE411A33EE407A3AEE406A24
:1030900035EE425A38EE424A31EEE01A36EE470A31
:1030A00034EE452A21EE013A00EE003A02EE023AF1
:1030B000B4EEE23AF1EE10FA48DD60EEA00A61EEFD
:1030C000A11A47EE070A46EE061A45EE050A44EE37
:1030D000041A31EEE04ADFED8B1A24EE284A84EE22
:1030E000033A61EE030A20EE030A22EE031A1EF0F1
:1030F00063FF41F200109FED842A84ED19AA84ED4C
:103100001A9A84ED1B8AC2F2000090ED1C3A90EDF1
:103110001D4A90ED1E5A00EE023A00EE824A01EE80
:10312000025A80ED1C3A80ED1D4A80ED1E5A0DE0DA
:1031300000200AE040F65060C2F2000080ED19AABB
:1031400080ED1A9A80ED1B8A0120F0700020002586
:1031500003F0AEF804460078C0B19DF814000028D2
:1031600000F0EA8097ED061A97ED010A97ED0B2A19
:1031700021EE018A00EE008A02EE028AB5EEC08AD4
:10318000F1EE10FA79DA9FED610A83E040F65060C3
:10319000C2F2000045630564CEE040F6D0539FEDD7
:1031A0005C0A9FED5C2AC2F2000393ED0D1AB8EEA3
:1031B000C11A21EE003AB4EEC23AF1EE10FA08DC80
:1031C000B4EEC03AB0EE432AF1EE10FAB8BFB0EE5A
:1031D000402A90ED063AB7EE084AB6EE005A93ED53
:1031E0000C0A23EE046A9FED4C4AB7EE003A02EE59
:1031F000056A83EE023A36EE405AB4EEC45AF1EE56
:1032000010FA08DC9FED454AB4EEC45AF1EE10FA0C
:10321000A8BFB0EE454A9FED425A40F65067C2F251
:10322000000722EE052A02EE040A91ED0D2A91ED27
:103230000E4A83ED0C0A90ED135A90ED146A35EEA8
:10324000422A36EE444A23EE022A23EE043A22EEC4
:10325000012A23EE011A87ED0B2A87ED0C1AD0E91B
:103260001376456D00205863C1E90D76CD63D2E930
:103270000023C1E90823FEF707BEB0EE480A24F098
:1032800038FEB4EEC00AF1EE10FA03D7B0EE480AE9
:1032900024F02FFE40F650609FED222AC2F200007B
:1032A00090ED0D1A30EE020AB4EEC10AF1EE10FAFA
:1032B00010DD80ED0D0A9FED1C2A90ED101A94EDA3
:1032C000043A30EE410A23EE022A02EE001A80EDA3
:1032D000101A31E09FED142A94ED043A30EE414A81
:1032E00023EE022A90ED103A04EE021AB4EEC30A5D
:1032F00080ED0D1AF1EE10FA18DA80ED100A1BE0DD
:103300000BD7233C0AD7A33CCDCC4C3D000000009A
:103310006F12833A6666663FCDCC4C3ECDCC4CBE38
:10332000CDCCCC3D9A9919BF9A99193F30EE430AFA
:1033300000EE023A80ED103A012002F0B9FF044697
:103340000078B8B19DF81500002864D097ED151AE3
:1033500097ED100A97ED1A2A21EE018A00EE008AF5
:1033600002EE028AB5EEC08AF1EE10FA0ADA1FED1B
:10337000190A14E040F650600021C2F20000816397
:10338000416448E0B0EE480A24F0B3FDB4EEC00A50
:10339000F1EE10FA03D7B0EE480A24F0AAFD40F689
:1033A00050601FED202AC2F2000090ED0E1A30EEA0
:1033B000020AB4EEC10AF1EE10FA10DD80ED0E0A39
:1033C0001FED272A90ED111A94ED043A30EE410AD0
:1033D00023EE022A02EE001A80ED111A1BE01FED07
:1033E0002E2A94ED043A30EE414A23EE022A90ED63
:1033F000113A04EE021AB4EEC30A80ED0E1AF1EE91
:1034000010FA02DA80ED110A05E030EE430A00EE10
:10341000023A80ED113A022002F04AFF0446007899
:10342000B8B19DF81600002864D097ED241A97EDE6
:103430001F0A97ED292A21EE018A00EE008A02EE8A
:10344000028AB5EEC08AF1EE10FA0ADA1FED4B0AD5
:1034500018E040F650600021C2F20000C1638164B0
:1034600048E0B0EE480A24F044FDB4EEC00AF1EEA4
:1034700010FA03D7B0EE480A24F03BFD1FED571AAF
:1034800030EE010A40F65060C2F2000090ED0F1AD3
:10349000B4EEC10AF1EE10FA10DD80ED0F0A9FEDD7
:1034A000E82A90ED121A94ED043A30EE410A23EE28
:1034B000022A02EE001A80ED121A1BE09FEDE02AAC
:1034C00094ED043A30EE414A23EE022A90ED123A8E
:1034D00004EE021AB4EEC30A80ED0F1AF1EE10FAF0
:1034E00002DA80ED120A05E030EE430A00EE023AFD
:1034F00080ED123A002002F0DBFE007818B39DF850
:10350000140000B340F650609FEDCE1AC2F20000E6
:1035100090ED100AB4EEC10AF1EE10FA13DD90ED51
:103520000D1A9FEDC92AB4EEC21AF1EE10FA0ADAAA
:1035300031EE400A9FEDC51AB4EEC10AF1EE10FA61
:1035400001DA002056E0012002F0B2FE007818B344
:103550009DF8150000B340F650609FEDBA1AC2F214
:10356000000090ED110AB4EEC10AF1EE10FA13DD7D
:1035700090ED0E1A9FEDB42AB4EEC21AF1EE10FAD5
:103580000ADA31EE400A9FEDB11AB4EEC10AF1EE4B
:1035900010FA01DA01202DE0022002F089FE007805
:1035A0009FEDAB0A60B39DF8160048B340F6506239
:1035B0009FEDA42AFF204FF0FF380021C2F2000245
:1035C00092ED121AB4EEC21AF1EE10FA1CDD92ED71
:1035D0000F2A9FED9D3AB4EEC32AF1EE10FA13DAEA
:1035E00032EE411A9FED992AB4EEC21AF1EE10FAAA
:1035F0000ADA02209FED8F0A5FFA80F8012103E0CA
:10360000FF204FF0FF38002140F2A00BC2F2000B68
:103610009BED011A31EE001AB3EE0E0AB4EEC01A99
:103620008BED011AF1EE10FA06DCB5EEC01AF1EEE0
:1036300010FA03DA9FED810A8BED010A002900F0F0
:10364000F28005A911F80810002900F0EC8002F0C2
:103650002FFE45F2C83144F69C424FF6FF739FEDB2
:1036600076DAC2F20001C2F2000291F800E04FF6F1
:10367000FF71BEF1000F18BF0121147844F60072EB
:10368000C2F20002167845F26412C2F2000292F809
:1036900000904FF6FF72B9F1000F18BF0123002E02
:1036A00018BF0122002C18BF4FF0010A90ED040A48
:1036B000009820EE0DCA804579D045F2D0305746AB
:1036C00040F6D05C002CC2F20000C2F2000C008870
:1036D000049045F26C10C2F200000088039044F69A
:1036E0000870C2F20000B0F800A044F6A440C2F294
:1036F00000000088A0EB07052C4618BF96348742CF
:103700000CF1680798BF2C46A1CF002EDCF874C0DE
:1037100000EB8400AAEB02040297264618BF9636F7
:10372000524598BF2646039FB9F1000F41F68C29F8
:1037300005EB8602C2F20009A7EB0304254618BF79
:103740009635BB424F4698BF2546029B049EBEF16C
:10375000000F03EB8503A6EB01052C4618BF96343A
:10376000B14298BF2C4693ED009A92ED00AA90EDDD
:1037700000BA0CEB840191ED008A00F0E7F8B0EE9E
:10378000603AB0EE615AB0EE414AB0EE402AB0EE77
:103790004B0AF0EE4A0AB0EE491AF0EE481AF0EE83
:1037A000432AB0EE443AF0EE453A11F093FE40F66B
:1037B000D054C8EB0810C2F2000407EB800004F1FB
:1037C0005C01D1EC030A9BED040A90ED012AD0EDD7
:1037D000062A90ED0B3A11F0EBFF22F059FE2CEE89
:1037E0000D3A2CEE000AB4EEC30AF1EE10FA08DC32
:1037F000B1EE433AB4EEC30AF1EE10FAA8BFB0EE50
:10380000403A9FED0E2A04F15C00D0EC030A9BEDD8
:10381000040AF0EE422A12F03FF804F15C008BED4E
:10382000040AC0EC030A06B0BDEC108B01B0BDE881
:10383000F08F00BF6F12833ACDCC4C3E00000000E9
:103840009A99193F9A9999BE9A99993E0AD7233C19
:103850006F1203BA022806D99FED091AF0EE410A49
:10386000B0EE410A704743F2846100EB8000C2F27F
:10387000000101EBC000283090EC030A704700BF44
:1038800000000000022806D99FED091AF0EE410A57
:10389000B0EE410A704743F2846100EB8000C2F24F
:1038A000000101EBC000343090EC030A704700BF08
:1038B0000000000043F28460C2F2000090EDCE0AE6
:1038C0007047000043F28460C2F2000090EDCF0A1E
:1038D0007047000043F2846100EB8000C2F20001F7
:1038E00001EB001000F5CC707047000043F28461DA
:1038F00000EB8000C2F2000101EB001000F5C8707F
:103900007047000043F2846100EB8000C2F20001C6
:1039100001EB001000F5DC7070470000022806D9AA
:103920009FED091AF0EE410AB0EE410A704743F2EA
:10393000846100EB8000C2F2000101EBC000A03006
:1039400090EC030A704700BF0000000043F284605F
:10395000C2F2000000F5347090EC040A70470000D9
:10396000022806D99FED091AF0EE410AB0EE410A8D
:10397000704743F2846100EB8000C2F2000101EB6A
:10398000C00000F58C7090EC030A70470000000046
:10399000022806D99FED091AF0EE410AB0EE410A5D
:1039A000704743F2846100EB8000C2F2000101EB3A
:1039B000C00000F5927090EC030A70470000000010
:1039C00043F284609FED060AC2F2000090F82E03D5
:1039D00001EE100AB8EE411A21EE000A704700BF4E
:1039E0000AD7233C43F284609FED060AC2F200002E
:1039F00090F82D0301EE100AB8EE411A21EE000AEC
:103A0000704700BF0AD7233C43F28460C2F2000033
:103A100090F82C037047000043F28460C2F200006B
:103A200090EDCC0A704700009FED0A0A022810D8DA
:103A30004A1ED2B2032A88BF704700EB800001EB18
:103A4000400043F28461C2F2000101EB800090ED7E
:103A5000D20A7047000000009FED0A0A022810D821
:103A60004A1ED2B2032A88BF704700EB800001EBE8
:103A7000400043F28461C2F2000101EB800090ED4E
:103A8000D60A704700000000022884BF9FED060A96
:103A9000704743F2846100EB8000C2F2000101EB49
:103AA000C00090EDD20A70470000000043F284602D
:103AB000C2F2000090F820037047000002288FBF78
:103AC000002043F28461C2F2000101EB800098BF44
:103AD000D0F8F40770470000022888BF704743F20F
:103AE000846100EB8000C2F2000101EBC0002830CD
:103AF00080EC030A70470000022888BF704743F239
:103B0000846100EB8000C2F2000101EBC0003430A0
:103B100080EC030A7047000043F28460C2F20000A8
:103B200080EDCE0A7047000043F28460C2F20000CC
:103B300080EDCF0A70470000B0B543F2846200EB1D
:103B4000800001F10805D1E900CEC2F2000202EBCB
:103B500000103CCD00F5D0773CC7C0E966CED1E976
:103B60000621C0E96C21B0BD43F2846200EB800005
:103B7000C2F2000202EB00100A684968C0E9642141
:103B800070470000B0B543F2846200EB800001F1A1
:103B90000805D1E900CEC2F2000202EB00103CCDD4
:103BA00000F5E0773CC7C0E96ECED1E90621C0E957
:103BB0007421B0BD022888BF704743F2846100EBD6
:103BC0008000C2F2000101EBC000A03080EC030ACB
:103BD00070470000022888BF704743F2846100EB01
:103BE0008000C2F2000101EBC000AC3080EC030A9F
:103BF0007047000043F28460C2F2000000F53470A8
:103C000080EC040A70470000022888BF704743F226
:103C1000846100EB8000C2F2000101EBC00000F5FE
:103C20008C7080EC030A7047022888BF704743F20B
:103C3000846100EB8000C2F2000101EBC00000F5DE
:103C4000927080EC030A70479FED071A43F284617B
:103C5000C2F2000120EE010ABDEEC00A10EE100A09
:103C600081F82E03704700BF0000C8429FED071A7D
:103C700043F28461C2F2000120EE010ABDEEC00AE7
:103C800010EE100A81F82D03704700BF0000C842F3
:103C900043F28461C2F2000181F82C0370470000F6
:103CA00043F28460C2F2000080EDCC0A704700004D
:103CB000022810D84A1ED2B2032A88BF704700EBF0
:103CC000800001EB400043F28461C2F2000101EB8D
:103CD000800080EDD20A7047022810D84A1ED2B266
:103CE000032A88BF704700EB800001EB400043F2DD
:103CF0008461C2F2000101EB800080EDD60A7047BA
:103D0000022888BF704743F2846100EB8000C2F252
:103D1000000101EBC00080EDD20A704743F28461DC
:103D2000C2F2000181F8200370470000022884BF1E
:103D30000020704780B500EB800028210C2201EBA9
:103D4000C00143F28460C2F20000084480EC030A20
:103D50001EF0C8FAB0FA80F0400980BD022884BF86
:103D60000020704780B500EB800034210C2201EB6D
:103D7000C00143F28460C2F20000084480EC030AF0
:103D80001EF0B0FAB0FA80F0400980BD70B500EBCB
:103D900080004FF4CC7243F284664B6901F1080C49
:103DA00002EB0012D1E9000E9CE83010C2F20006CE
:103DB000B050B0184361C0E9035CC0E901E4D1E947
:103DC0000631C0E90631114620221EF08BFAB0FA06
:103DD00080F0400970BD000080B500EB80004FF41A
:103DE000C87243F2846302EB001208684968C2F2A9
:103DF0000003985098184160114608221EF072FA8C
:103E0000B0FA80F0400980BD70B500EB80004FF43F
:103E1000DC7243F284664B6901F1080C02EB00127C
:103E2000D1E9000E9CE83010C2F20006B050B01884
:103E30004361C0E9035CC0E901E4D1E90631C0E9AE
:103E40000631114620221EF04DFAB0FA80F04009EA
:103E500070BD0000022884BF0020704780B500EBD1
:103E60008000A0210C2201EBC00143F28460C2F269
:103E70000000084480EC030A1EF034FAB0FA80F027
:103E8000400980BD80B543F284601022C2F2000078
:103E900000F5347100F5347081EC040A4FF434718C
:103EA0001EF020FAB0FA80F0400980BD022884BFDD
:103EB0000020704780B500EB80004FF48C710C221D
:103EC00001EBC00143F28460C2F20000084480ECC0
:103ED000030A1EF007FAB0FA80F0400980BD000026
:103EE000022884BF0020704780B500EB80004FF4AB
:103EF00092710C2201EBC00143F28460C2F2000017
:103F0000084480EC030A1EF0EDF9B0FA80F0400995
:103F100080BD000080B5D0E9001243F28463806860
:103F2000C2F20003C3F8F417C3F8F827C3F8FC077C
:103F300003F2F47040F2F4710C221EF0D3F9B0FADF
:103F400080F0400980BD00002DE9F043CBB00D4664
:103F50008046D5F80C905FFA89F420460BF01CF9E6
:103F6000064636B10BF012F958B10EF0ADF8044622
:103F700008E020460EF0AEF806460BF007F90028E0
:103F8000F3D10024404616F09FFC07463868F0B194
:103F90000021B5F807000A220A238DF813104D21DD
:103FA000ADF811100A218DF816408DF8179006967D
:103FB00002ACADF81410ADF81C008F204146009003
:103FC00020461AF0F1FE386821461CF037F84BB055
:103FD000BDE8F08380B584B0C8680190086902909C
:103FE0004869039001A8FFF795FF04B080BD000069
:103FF00010B50C4616F042FD012811D12069B2EE31
:10400000041A00EE100AB4EEC10AF1EE10FA1CDB3D
:10401000B3EE031AB4EEC10AF1EE10FA0FDD14E0AC
:104020000A38C0B2092810D82069B7EE000A01EE9C
:10403000100AB4EE401AF1EE10FA18BF10BDBDEE32
:10404000C00A10EE100A12F069FE10BD70470000A1
:1040500070B5CAB0054616F037FC04462068D0B1EA
:10406000002001AE2946162216238DF80F004FF4CA
:104070009670ADF80D00C820ADF81400C820C0F24D
:1040800064000490D920009030461AF08DFE20681C
:1040900031461BF0D3FF4AB070BD00002DE9F04F50
:1040A000ADF51B7D24AD40F6A0360DF1860C002742
:1040B00005F10900C2F200061D9089A801300390A5
:1040C0004DF67870C0F2020000881C9007EB4704A0
:1040D00006EB84008268002A00F0338460460A21DF
:1040E0009047C0B20028189000F0308445F61020A8
:1040F0004FF49271189E00234FF0000E0DF1860CC4
:104100001597C2F2000007FB010A00210AF21710FE
:104110001E9105900AF21D1007900AF58B70099008
:104120000AF1020010900AF58A70149045F6A0601A
:10413000C2F2000000EBC40B0AF215100024179025
:104140000AF10C000BF103090C900AF109001B9015
:104150000AF108000E900AF107000B900AF1060020
:1041600012900AF105000F900AF104001A900AF16A
:10417000030020900BF10A0008900BF11400069048
:104180000BF1100011900BF108000D900BF10500E0
:104190000A900BF10D0013900BF10C0019900BF12C
:1041A000040016900BF102001F900020C6E00027CB
:1041B0008BF8007077E3032734E0012732E0002E0C
:1041C00000F0D982059881880768099800913188A4
:1041D0000078002902905BD00B98002290F800C074
:1041E000002000BF00EBC00506EB050E9EF8035053
:1041F000AC450AD10E9B9EF804501B78AB4204D10B
:104200009EF80230029D9D4269D001300132884201
:10421000E8D392B28A4266D10F2900F2AC8239E02B
:104220000327189E8BF80070012051464FF49272BC
:1042300089F800002846FCF7A4FB0D9A012F4FF0E7
:10424000000E0DF1860C4FF000030ED112980A9962
:104250000127007808701088002800F1010004BFD1
:104260000899A1F800E010801DE32098022F007843
:104270008DF893001F9880F800E040F01B8317989A
:1042800014990078097841EA0020ADF8900015E310
:1042900000210020009A48F68053C0F25B0392B2DE
:1042A000DB1942F1000C019A52F8085F96465268F9
:1042B0005B1B7CEB0202C0F05E820B9B00EBC0023A
:1042C000029D013132441B78D3700E9B1B78957090
:1042D00024AD137131803146189E734616E00246B4
:1042E00092B28A4298D000EBC001009B3144B1F8F1
:1042F0000920D1F805109BB2C91B72EB030180F0B5
:104300003A82019B3146189E24AD083300EBC00071
:10431000084405990A469188A0F809101168C0F868
:1043200005100098D3E9001280B2C91B72EB00019E
:1043300038BFC3E90070012774E700BF8BF8003075
:104340001CF8008099F800000F2800F2AB820227C9
:10435000DFE810F0100010002800460059006E0041
:1043600084009A00B000CC00E50004012801490156
:10437000500173010027B8F1FE0F00F06482B8F11C
:10438000FD0F40F0908202200027109989F800006C
:1043900020980770FD20087019980146087800F0F1
:1043A000FE005DE2209880F80080169880F800E01A
:1043B000BAF80000C1B281EA08010A01D2B2514044
:1043C0000A0982EAC102090241EA10205040AAF813
:1043D000000019980078C00740F0488203205FE28F
:1043E0001A98B8F1020F80F80080C0F047821F9839
:1043F0000027014608780130087001208BF8007012
:1044000089F800004FE20F9880F80080BAF80000A9
:10441000C1B281EA08010A01D2B251400A0982EA16
:10442000C102090241EA10205040AAF8000023E22C
:10443000129880F80080BAF80000C1B281EA080141
:104440000A01D2B251400A0982EAC102090241EAD4
:1044500010205040AAF80000062021E20B9880F8B6
:104460000080BAF80000C1B281EA08010A01D2B2A4
:1044700051400A0982EAC102090241EA1020504073
:10448000AAF8000007200BE20E9880F80080BAF826
:104490000000C1B281EA08010A01D2B251400A0902
:1044A00082EAC102090241EA10205040AAF8000045
:1044B0000820F5E11B9880F802E0A0F80080BAF827
:1044C0000000C1B281EA08010A01D2B251400A09D2
:1044D00082EAC102090241EA10205040AAF8000015
:1044E00019980078C00731D10920D9E11B980146FD
:1044F000088840EA08200880BAF80000C1B281EAC2
:1045000008010A01D2B251400A0982EAC102090235
:1045100041EA10205040AAF800000A20C0E11B9890
:104520000146887840EA08008870BAF80000C1B2F5
:1045300081EA08010A01D2B251400A0982EAC102A5
:10454000090241EA10205040AAF8000020980078A3
:1045500000284FF00B0008BF0C20A1E1169800279F
:1045600002461078411C11700C9AC9B202F8008002
:10457000BAF80000C2B282EA08021301DBB25A4064
:10458000130983EAC203120242EA102058400023B2
:10459000AAF8000020980078814204BF0C2089F816
:1045A000000080E11B98002201468878098841EAD2
:1045B0000040A821571C00BF7B184EF67C065B0804
:1045C000C0F2020603EB430556F82550854203D995
:1045D000591E8A42F0D3F5E0189E80F0F5808B4298
:1045E0001A46E7D3F0E0BAF800000227B8EB102F24
:1045F00008BF012717988BF8007080F800801A9880
:104600000078C00740F0CC801198006800283FF483
:104610000BAE026B62B11B9801468878098841EAAB
:104620000041584690479BF8007000287FF4FCAD8D
:10463000022F7FF4C0AD0227F6E5139802461078EA
:10464000C0F10D010138514410F0FF0F107081F8D6
:10465000168140F027811198016800293FF4ADAD23
:1046600006986FAE2022006804904EF26760CDE994
:104670006FEE01911031C6F6092071904AF68560FF
:10468000CBF6673072904FF27230C3F66E40739083
:104690004FF23A50CAF24F50749045F27F20C5F263
:1046A0000E10759046F68C00C9F6053076904DF6E2
:1046B000AB10C1F6837077904CF61950C5F6E03018
:1046C000789030461BF0E8FF20981099007800F1B0
:1046D0000A0230461BF0E0FF1499304602221BF01C
:1046E000DBFF0999304607221BF0D6FF80206F9D23
:1046F00047218DF824020398FCF7BAF9372089A9DD
:104700002A0AA0EBD50000F03F000F18FA712A0C1E
:104710003D72BA712A0E7A71709A130A3A71FB705F
:10472000130C120EBB707A7000F109023046049E21
:104730001BF0B2FF9DF8C7319DF8C4019DF8C5116B
:104740009DF8C6218DF8B6318DF8B7218DF8B811D6
:104750008DF8B9019DF8CB01079906228DF8BA01B1
:104760009DF8CA018DF8BB010DF5DB70FCF7DDF893
:1047700000283FF424AD119824AD0068026B002A94
:104780003FF44EAD1B9801468878098841EA004104
:104790005846904700284FF0030718BF012740E50F
:1047A0000F201399022F89F800004FF00D000870B8
:1047B0007FF4FDAC209800788DF893001F9880F866
:1047C00000E05CE5189E13464EF67C0103EB4307C0
:1047D00000230022C0F202010D4655F82710814245
:1047E00004BF05EB87021379BAF80070FDB26B4085
:1047F0001D01EDB26B401D0985EAC3051B0243EAAA
:1048000017236B40AAF80030DBB298454FF00E0337
:1048100008BF0D23814289F80030149B83F8008083
:104820000DD1169851790278914208D90C98891ABD
:104830001044FCF71DF90DF1860C4FF0000E002717
:1048400024AD00232FE00220109989F80000209861
:104850000770FE20087019980146087840F00100A2
:1048600008704FF6FF70AAF800001CE01A9880F854
:1048700000E00F9880F800E0052011E0BAF8000091
:10488000C1B281EA08010A01D2B251400A0982EAA2
:10489000C102090241EA10205040AAF80000042099
:1048A00089F800000027209800788DF893001F9861
:1048B00080F800E007F0FE00022819D11F990120BE
:1048C000B8F1FD0F08708BF800E089F800002BD1DB
:1048D000022089F80000209880F800E04FF6FF7071
:1048E000AAF800000134E0B2B042FFF427AD20E0A6
:1048F000D7B11D9801468878098841EA00401C9983
:1049000088420FD24DF6F021C0F2020151F820206A
:1049100042B115982946C0B2904700230DF1860C8C
:104920004FF0000E01201E900134E0B2B042FFF4BF
:1049300005AD1E9840F6A036159FC2F20006C007CE
:104940000AD10137042FFFF4C1AB05E00DF1860C4D
:104950000137042FFFF4BAAB0DF51B7DBDE8F08FD6
:1049600010B540F6A034C2F20004E06820B18047E0
:1049700000281CBF012010BDA06920B1804700287D
:104980001CBF012010BD606A08B1804718B9206BB8
:1049900018B1804708B1012010BD002010BD0000F3
:1049A0002DE9F04FCBB040F6A036C2F200063088B9
:1049B0000130308080B2632873D9002002A9308092
:1049C00001F109057168C1B14FF6FF7102AC09220E
:1049D000092305910221C0F20031069103218DF8CF
:1049E0001C10A8702880322000210090204619F069
:1049F000CBFC706821461BF0ABFA3069C8B14FF6AA
:104A0000FF7002AC01210922092305900220C0F2A7
:104A10000030069003208DF81C000020A87028802C
:104A200032200090204619F0AFFC306921461BF07F
:104A30008FFAF069C8B14FF6FF7002AC022109226B
:104A4000092305900220C0F20030069003208DF863
:104A50001C000020A870288032200090204619F009
:104A600093FCF06921461BF073FAB06AC8B14FF6A7
:104A7000FF7002AC03210922092305900220C0F235
:104A80000030069003208DF81C000020A8702880BC
:104A900032200090204619F077FCB06A21461BF0C6
:104AA00057FA43F222194DF67C7B04364FF0000A88
:104AB00002AC00270025C2F20009C0F2020B00BFC1
:104AC0003068002800F0048139F80700A0B109EB34
:104AD0000701CB788A780133CB70DBB293420BD3DA
:104AE0005BF8202081F803A0E8B22146904718B176
:104AF000306821461BF02CFA09EB0708B8F80400CF
:104B0000B0B198F8072098F80610013288F807200D
:104B1000D2B28A420CD35BF82020E8B2214688F852
:104B200007A0904720B1306821461BF011FA00BF62
:104B3000B8F80800B0B198F80B2098F80A100132C4
:104B400088F80B20D2B28A420CD35BF82020E8B25E
:104B5000214688F80BA0904720B1306821461BF011
:104B6000F7F900BFB8F80C00B0B198F80F2098F82A
:104B70000E10013288F80F20D2B28A420CD35BF8B3
:104B80002020E8B2214688F80FA0904720B1306875
:104B900021461BF0DDF900BFB8F81000B0B198F85D
:104BA000132098F81210013288F81320D2B28A42EA
:104BB0000CD35BF82020E8B2214688F813A0904778
:104BC00020B1306821461BF0C3F900BFB8F81400CB
:104BD000B0B198F8172098F81610013288F817200D
:104BE000D2B28A420CD35BF82020E8B2214688F882
:104BF00017A0904720B1306821461BF0A9F900BFEB
:104C0000B8F81800B0B198F81B2098F81A100132C3
:104C100088F81B20D2B28A420CD35BF82020E8B27D
:104C2000214688F81BA0904720B1306821461BF030
:104C30008FF900BFB8F81C00B0B198F81F2098F8A1
:104C40001E10013288F81F20D2B28A420CD35BF8C2
:104C50002020E8B2214688F81FA0904720B1306894
:104C600021461BF075F900BFB8F82000B0B198F8E4
:104C7000232098F82210013288F82320D2B28A42E9
:104C80000CD35BF82020E8B2214688F823A0904797
:104C900020B1306821461BF05BF900BFB8F8240052
:104CA000B0B198F8272098F82610013288F827200C
:104CB000D2B28A420CD35BF82020E8B2214688F8B1
:104CC00027A0904720B1306821461BF041F900BF72
:104CD00028370C360135A02F7FF4F2AE40F2CA0916
:104CE000C2F20009B9F90000B0F1FF3F40F3FD80C6
:104CF0004EF2C07140F6A03A04F1090604F114071F
:104D0000C0F20201C2F2000AB1F80080DAF8041021
:104D1000A9B34EF20844C0EBC000C0F2020404EB99
:104D20008005A8698047B9F900008DED050AADF846
:104D30001880D5F80110D5F80520D5F80930D5F838
:104D40000D50ADF81A00C0EBC000BB607A6039604E
:104D5000FD6000211922192314F8200002AC8DF8FF
:104D60002C000020B07016203080DC2000902046FF
:104D700019F00AFBDAF8040021461BF0E9F8DAF82A
:104D80001000B8B3B9F900004EF20844C0F20204B2
:104D9000C0EBC00004EB8005A8698047B9F90000AA
:104DA0008DED050AADF81880D5F80110D5F805206D
:104DB000D5F80930D5F80D50ADF81A00C0EBC00099
:104DC000BB607A603960FD6001211922192314F853
:104DD000200002AC8DF82C000020B070162030802E
:104DE000DC200090204619F0CFFADAF810002146B6
:104DF0001BF0AEF8DAF81C00B8B3B9F900004EF2B7
:104E00000844C0F20204C0EBC00004EB8005A869AE
:104E10008047B9F900008DED050AADF81880D5F886
:104E20000110D5F80520D5F80930D5F80D50ADF8AA
:104E30001A00C0EBC000BB607A603960FD600221DF
:104E40001922192314F8200002AC8DF82C00002040
:104E5000B07016203080DC200090204619F094FAC3
:104E6000DAF81C0021461BF073F8DAF82800B8B312
:104E7000B9F900004EF20844C0F20204C0EBC000D1
:104E800004EB8005A8698047B9F900008DED050A9B
:104E9000ADF81880D5F80110D5F80520D5F80930FF
:104EA000D5F80D50ADF81A00C0EBC000BB607A60B9
:104EB0003960FD6003211922192314F8200002AC87
:104EC0008DF82C000020B07016203080DC2000907F
:104ED000204619F059FADAF8280021461BF038F874
:104EE000B9F800000138A9F800004BB0BDE8F08F18
:104EF00010B52DED0A8B04460021002094ED0A1A0E
:104F000030EE410AB5EEC00AF1EE10FAC8BF012139
:104F100094F83C20914208D19FED521A94ED102A4A
:104F200032EE011A84ED101A0AE0B5EEC00A9FEDC8
:104F30004C1A2064F1EE10FAC8BF012084F83C003E
:104F400021EE016AF7EE000A94ED024A94ED002A80
:104F50009FED457A94ED035A94ED013A9FED43CAD3
:104F600021EE061AF0EE601AB2EE0E6A44EE011A55
:104F700087EE024A45EE010AF4EEC61AF1EE10FA87
:104F8000C8BFF0EE461AF4EEC41AF1EE10FAF4EED1
:104F9000C60AC8BFF0EE441AF1EE10FAC8BFF0EE30
:104FA000460A22EE211A23EE202A20EE01BA20EE34
:104FB000029A8BEE0C8AB0EE490A20F07EFBB0EE2E
:104FC00040AAB0EE480A20F078FBB4EEC0AAF1EE99
:104FD00010FA02DD9FED22BA09E0B9EE001A9FED4A
:104FE000210AB0EE498A29EE011A01EE00BA94EDC9
:104FF0000B2A94ED0C3A94ED0D4A94ED081AB0EE9C
:105000004B6A94ED070A9FED175A9FED197ADFED71
:10501000190A4DF20A7008EE0C6AC3F6A3303BEE93
:10502000022A3BEE044A3BEE033A36EE000A38EE23
:10503000011AA06308EE052A08EE074A08EE203A96
:1050400084ED070A84ED081A84ED0A2A84ED0B3AF0
:1050500084ED0C4A84ED0D0ABDEC0A8B10BD00BF37
:10506000000000000AD7A33B6666663F0AD7A33C50
:105070008FC2753C0AD7233C80B54FF48061FBF7A3
:10508000F7FC80BD70B555180446082D27D832B3FB
:105090000E4600BF04EBC1108021FBF7E9FC701C39
:1050A000C0B285421BD904EBC0108021FBF7E0FCA5
:1050B000B01CC0B2854212D904EBC0108021FBF7AE
:1050C000D7FCF01CC0B2854298BF70BD04EBC01085
:1050D0008021FBF7CDFC0436F1B28D42DAD870BDE9
:1050E0002DE9F04F81B0062A13D84FF000086FF079
:1050F00003050027FEB28C5D3CB10137013508F194
:105100000108FEB2FF2EF5D103E003EBC604802CAC
:1051100003D9002001B0BDE8F08F3F0600F0E48025
:10512000741E571C06F0030C032C009704D20024B5
:10513000BCF1000F7AD1D7E008F003044CF2D1693A
:105140004FF0000AA5EB040800EBC714C0F20209F7
:105150001C4404F1180500BF11F80A40203CE4B2D9
:105160005A2C88BF002409EB04172401BE68D7F825
:1051700004B0FF6859F8044045F8147C45F8186CF1
:1051800045F8984C45F894BC01EB0A046678203E3B
:10519000F6B25A2E88BF002609EB0617D7F808E0AA
:1051A000D7F804B0FF6845F80C7C370145F810ECDF
:1051B00045F88CBC59F8077045F8907CA778203FDB
:1051C000FFB25A2F88BF002709EB07163F01D6F818
:1051D00008B0D6F804E0F66859F8077045F8046C92
:1051E00045F808BC45F884EC45F8887CE778203F12
:1051F000FFB25A2F88BF0027D04509EB07164FEAA8
:105200000717B468D6F804E0F66859F807702C6000
:105210000AF104046E6045F87CEC45F8807C05F1E9
:105220002005A24698D1BCF1000F5DD00F5D4CF275
:10523000D16E03EBC40500EBC218C0F2020E08EBFE
:105240000509203FFFB25A2F88BF0027BCF1010F8C
:105250004FEA07160EEB07177A685EF80660C9F882
:105260000420009A48F80560BE68FF6800EBC21091
:1052700000EB05024651576036D0621C8D5C03EB93
:10528000C20208EB0209203DEDB25A2D88BF00256D
:10529000BCF1020F4FEA05160EEB05155EF806602D
:1052A0006F6848F80260AE68ED68C9F8047086500F
:1052B0000244556018D0A21C895C03EBC20208EBC3
:1052C00002032039C9B25A2988BF00210F010EEB11
:1052D00001115EF807708E6848F802704F68C9685F
:1052E0005F60865010444160012001B0BDE8F08F3E
:1052F0002DE9F043072A1BD84FF0000E6FF003068C
:105300000025ECB20F5D6FB1013501360EF1010ED3
:10531000EFB2FF2F04BF0020BDE8F083ECB20F5DB9
:10532000002FF1D104EB440703EB4707802F02D98C
:105330000020BDE8F0832F0600F09C8004F0030CF1
:10534000013C032C04D20027BCF1000F5DD191E099
:1053500000EBC2140EF003074CF6C1484FF00009F1
:105360001C44A6EB070EC0F20208123411F80970B3
:10537000203FFFB25A2F88BF002707EB470758F896
:10538000176044F8126C08EB4706B68824F80E6CD8
:1053900001EB09067778203FFFB25A2F88BF00271C
:1053A00007EB470758F8175044F80C5C08EB470523
:1053B000AD8824F8085CB578203DEDB25A2D88BF41
:1053C000002505EB450558F8157008EB4505AD8837
:1053D00044F8067C09F1040724F8025CF578203DC6
:1053E000EDB25A2D88BF0025CE45B94605EB4505DF
:1053F00058F8156008EB4505AD882660A58004F1D6
:105400001804B3D1BCF1000F34D0CE5D00EBC21054
:1054100007EB470203EB4202203EF6B25A2E88BF4A
:105420000026BCF1010F06EB46054CF6C146C0F262
:10543000020656F8154006EB4505AD888450024437
:10544000958017D07A1C8D5C02EB420203EB42027E
:10545000203DEDB25A2D88BF0025BCF1020F05EBAF
:10546000450556F8154006EB4505AD8884500244C5
:10547000958002D10120BDE8F083BA1C895C02EB63
:10548000420203EB42022039C9B25A2988BF0021E7
:1054900001EB410156F8117006EB410189888750F4
:1054A000104481800120BDE8F083000019B902F1A9
:1054B0004003802B01D900207047B0B54CF6E4655D
:1054C00000EBC1108418C0F2020540222046294694
:1054D000FBF757FA04F1800005F140014022FBF789
:1054E00050FA04F5807005F180014022FBF749FA7B
:1054F00004F5C07005F1C0014022FBF742FA04F543
:10550000007005F580714022FBF73BFA04F520702E
:1055100005F5A0714022FBF734FA04F5407005F55B
:10552000C0714022FBF72DFA04F5607005F5E071BB
:105530004022FBF726FA0120B0BD0000072984466F
:1055400084BF00207047931D0020802B88BF7047C8
:1055500000230CEBC111C1F618038B501144888055
:1055600001207047072A04D803F1060CBCF1800F14
:1055700001D90020704700EBC2100029184409D05F
:105580004CF27001818040F20461C1F60341016078
:105590000120704744F22421818042F24241C1F649
:1055A000180101600120704770B52DED048BB0EE3D
:1055B000608A0446B0EE409A18EE100A25F0CCFA44
:1055C0009FED2D0B05460E4653EC102B25F01DFBD1
:1055D000002845D19FED2A0B2846314653EC102B6D
:1055E00024F0BCFC054619EE100A0E4625F0B4FA6C
:1055F00002460B462846314625F000FBA8BB9FED2E
:10560000220A89EE081A80EE010A22F08FFC9FED33
:105610001F1AB7EE002ABFEE004A012020EE011A41
:1056200020EE000A31EE023A32EE411A30EE044A20
:1056300030EE033A30EE011A82EE032A34EE043AD9
:1056400020EE020A23EE023A21EE021A84ED010A4C
:1056500084ED023A84ED031A2070BDEC048B70BD1A
:1056600000202070BDEC048B70BD00202070BDECCC
:10567000048B70BD00BF00BF2D431CEBE2361A3F08
:10568000CDCCCCCCCCCC0040DB0F4940F304B53FB3
:1056900070B52DED068BB0EE608A0446B0EE409AF0
:1056A00018EE100A25F058FA9FED3F0B05460E46FE
:1056B00053EC102B25F0A9FA002870D19FED3C0B7C
:1056C0002846314653EC102B24F048FC054619EED1
:1056D000100A0E4625F040FA02460B46284631468F
:1056E00025F09AFA00285AD09FED330A89EE081A5D
:1056F00080EE018AB0EE480A22F018FC9FED2F1AC6
:10570000B7EE009ABFEE00AA0120207020EE011A29
:1057100020EE000A31EE092A30EE0A3A39EE411A3B
:1057200030EE022A33EE033A30EE011A89EE022AF5
:1057300020EE020A23EE023A21EE021A84ED010A5B
:10574000B0EE480A84ED023A84ED031A22F0EEFB33
:105750009FED1B1A20EE011A20EE000A31EE092AF5
:1057600030EE0A3A39EE411A30EE022A33EE033AAD
:1057700030EE011A89EE022A20EE020A23EE023AE6
:1057800021EE021A84ED040A84ED053A84ED061A2E
:105790002078002818BF0120BDEC068B70BD0020CA
:1057A0002070BDEC068B70BD2D431CEBE2361A3F1A
:1057B000CDCCCCCCCCCC0040DB0F49405E83EC3F61
:1057C00015EF433F90F87010002900F0898090EDAC
:1057D0000C1A90ED0D3A90ED004A90ED015AD0ED83
:1057E0000E0A90ED026AD0ED0F1A90ED037A31EEB9
:1057F000012A32EE002A33EE022A90ED103A24EE0E
:10580000022A90ED114A00EEC52A01EEC62A90ED5B
:10581000126A33EE035AD0ED051A32EE055A34EE11
:10582000054A90ED045A27EE044A90ED137A80ED74
:105830000C0A80ED0D1A80ED0E2AC0ED0F0A80EDE6
:10584000102A80ED113A06EE454A07EE614A80EDD6
:10585000124A80ED136A90ED160A90ED171A80ED4A
:10586000170A90ED146A90ED157A90ED062A90EDE6
:10587000073A90ED085A76EE060A74EE200A37EEE3
:10588000207A22EE072A00EE432A01EE452A80ED17
:10589000162A80ED156A80ED144A90ED1A1A90EDE3
:1058A0001B3A80ED1B1A90ED186A90ED197A90ED75
:1058B000090A90ED0A4A90ED0B5A76EE060A72EE4E
:1058C000200A37EE207A20EE070A01EE440A03EEA2
:1058D000450A80ED1A0A80ED196A80ED182A704792
:1058E00080ED0C0A80ED0D0A80ED0E0A80ED0F0AA6
:1058F00080ED100A80ED110A80ED120A80ED130A86
:1059000080ED140A80ED150A80ED160A80ED170A65
:1059100080ED180A80ED190A80ED1A0A80ED1B0A45
:10592000704700000000000070B52DED068BB0EE52
:10593000608A0446B0EE409A18EE100A25F00CF981
:105940009FED690B05460E4653EC102B25F05DF9D3
:10595000002840F0BA809FED660B2846314653EC94
:10596000102B24F0FBFA054619EE100A0E4625F01E
:10597000F3F802460B462846314625F04DF900283B
:1059800000F0AA809FED5C0A89EE081A80EE018A79
:10599000B0EE480A22F0CAFA9FED581AB7EE009A04
:1059A000BFEE00AA0120254620EE011A20EE000AD3
:1059B00031EE092A30EE0A3A39EE411A30EE022A67
:1059C00033EE033A30EE011A89EE022A20EE020A83
:1059D00023EE023A21EE021A84ED000AB0EE480AE4
:1059E00084ED013A84ED021A05F8700F22F09EFA58
:1059F0009FED431A20EE011A20EE000A31EE092A2B
:105A000030EE0A3A39EE411A30EE022A33EE033A0A
:105A100030EE011A89EE022A20EE020A23EE023A43
:105A200021EE021A84ED030AB0EE480A84ED043A2E
:105A300084ED051A22F07AFA9FED321A20EE011A4F
:105A400020EE000A31EE092A30EE0A3A39EE411A08
:105A500030EE022A33EE033A30EE011A89EE022AC2
:105A600020EE020A23EE023A21EE021A84ED060A23
:105A7000B0EE480A84ED073A84ED081A22F056FA8F
:105A80009FED211A20EE011A20EE000A31EE092ABC
:105A900030EE0A3A39EE411A30EE022A33EE033A7A
:105AA00030EE011A89EE022A20EE020A23EE023AB3
:105AB00021EE021A84ED090A84ED0A3A84ED0B1AEC
:105AC0002C462078BDEC068B70BD002004F8700FCA
:105AD0002078BDEC068B70BD002004F8700F207894
